:100000006F10607E00000000F2010000F4010000AB
:1000100000000000000000000000000000000000E0
:1000200000000000000000000000000000000000D0
:10003000E417000000000000E417000000000000CA
:10004000E4170000E4170000E4170000E4170000C4
:10005000E4170000E4170000E4170000E4170000B4
:10006000E4170000E4170000380B0000E41700005C
:10007000E4170000E4170000E4170000E417000094
:10008000E4170000E4170000E4170000020C000071
:10009000E4170000E4170000260C00000000000038
:1000A000511126C022C206C4828282441244A24058
:1000B000310182802A86014593F6150091C232955E
:1000C00085810606F5F9828000000000634E050276
:1000D00063C305042E86AA857D5515C285466378BF
:1000E000B6006356C00006068606E36CB6FE014500
:1000F00063E4C500918D558D85820582F5FA828075
:100100008682C93F2E8582823305A04063D70500D1
:10011000B305B040C1B7B305B0408682653F330533
:10012000A0408282868263C70500634905005D376F
:100130002E858282B305B040E35B05FE3305A04007
:10014000513F3305B040828200003D432A876373EC
:10015000C3029377F700BDEFADE5937606FF3D8AC6
:10016000BA960CC34CC30CC74CC74107E36BD7FE10
:1001700011E28280B306C3408A0697020000969679
:100180006780A6002307B700A306B7002306B700C1
:10019000A305B7002305B700A304B7002304B700E5
:1001A000A303B7002303B700A302B7002302B700DD
:1001B000A301B7002301B700A300B7002300B700D5
:1001C000828093F5F50F93968500D58D9396050162
:1001D000D58D61B793962700970200009696868288
:1001E000E78086FA9680C1171D8F3E96E374C3F8A8
:1001F000A5B701A0B707EFBE37E700E09387070870
:100200003CC701A0B7070240C8DFCCDB370702407C
:1002100081476398C700370702401C5BF99B1CDBD2
:100220008280145B93E6160014DB544393E60620A9
:1002300054C3144393F60620EDDE8507C207C1833D
:10024000C9BFB7370140CAA7373701401E27898B7E
:10025000F5DF8280EFF2DFE42A84A1453715014003
:10026000EF1050182285F13F89B5EFF27FE32A8421
:10027000A14537150140EF10B01613558400D13752
:100280001375F40F7D3F15B5EFF29FE151112A84EC
:100290001305A00236C02EC432C26D3F2285F1374D
:1002A00012463285D9371305B0026D37A2452E8527
:1002B0006D3F82463685553F1305C002613F3101CF
:1002C000EDB3EFF2FFDD370400202E83B28461111D
:1002D0002A8793D586001306C40E814763CF9704FF
:1002E000C145371501401AC23AC0EF10B00F02479E
:1002F00012431386F4FF131507014181931603017E
:100300002A96C1824206B6854182BD3FA145371576
:100310000140EF10F00CA68563D3040081458605EB
:10032000C20505461305C40EC181E93DC145371517
:100330000140EF10F00A21018DBB8507C2070CA216
:1003400014B2C187090659BFEFF29FD537040020C8
:100350002E87B28461112A8313D686009305C40EBA
:10036000814763CF9704C145371501403AC21AC08F
:10037000EF105007124702439386F4FF93150701CD
:10038000C18113160301AE964182C2063285C18235
:10039000E53DA14537150140EF109004A68563D3D4
:1003A000040081458605C20505461305C40EC181BA
:1003B000913DC14537150140EF1090022101F5B183
:1003C0008507C20790A194B1C187890559BFEFF293
:1003D0003FCD1301C1FD8545414502C002C202C4A3
:1003E00002C802CA02CC02CE23100102EF10D013C1
:1003F00085450565EF10501385450545EF10F01054
:100400000D44A147C1448A85371501407C8026C42C
:1004100022C2EF1080748A8537150140648026C49B
:1004200022C2EF10807393070002E1448A853715DA
:1004300001407C8026C422C2EF1020729307000482
:100440008A85371501407C8026C422C2EF10E070F7
:10045000B7C704013EC8B70700023ECC0C089D4751
:10046000373501402310F10202CA02CEEF105013BB
:100470000546894537350140EF105017854537351A
:100480000140EF101015371702405C4BC14537157E
:10049000014093E717005CCBB70702400D671307D5
:1004A000070B23A807029386070398DBB7370140A1
:1004B000B1079CC6EF1000734545693B13058007E3
:1004C000EF10F04B130560037133A1453715014060
:1004D000EF1000711305800EAD331305A0039D3B93
:1004E000A14537150140EF10A06F1545993B8D656B
:1004F000138485914146938585910A85EF20A03428
:100500001305000E813BA14537150140EF10406DEA
:100510000546C1450A85FD312945EF105046414643
:10052000930504010808EF2000321305100E1D3357
:10053000A14537150140EF10A06A0546C1450808DE
:10054000D1312945EF10B0431305000221334D4549
:1005500011332945EF10B04213059002E5392945C2
:10056000EF10F041C14537150140EF1060671301EE
:10057000410225BE2392A1902393B1908280B707B8
:1005800000202390A7008280B70700202394A70EA5
:100590008280EFF2FFB0931725003E95B707002049
:1005A00083D7870E31113704002013D7870093F7C4
:1005B000F70F3EC6B707002083D707003AC4814231
:1005C00013D7870093F7F70F3EC28D679387879302
:1005D0003AC081463EC81303C40E8547B390570006
:1005E000B6850146C244B303C5002E87A69383C3D4
:1005F0000300938715008905C207C205B3F31300F2
:10060000C183C1811A976387030682449A9704A322
:10061000124798A305069547E316F6FCA906C206FD
:10062000C182930760048502E399F6FAC145371544
:100630000140EF10205B03D5419083D561901306F4
:100640004500420693866500C206C18241822D396B
:10065000A14537150140EF10A05805461305C40EFB
:10066000930560044536C14537150140EF104057EA
:10067000510125BCA2449A9704A3324759BFEFF217
:100680003FA22A840305040011E105B4193713873A
:1006900041901E23050499071EA3EDB7EFF25FA05A
:1006A0007111AA842EC037150140C1453284EF1064
:1006B0006053824626862685B685F93622857536AC
:1006C000C14537150140EF10A0511101F9BAEFF201
:1006D0003F9DB7030020AE82B68451112A83935503
:1006E000870081479386C30E13941700420441800C
:1006F000639EC704C1453715014016C41AC23EC0E7
:10070000EF10404E8247A24212431386F7FF9386B2
:10071000F4FF96961A96C206420696851A85C182FD
:1007200041829D36A14537150140EF10604BB7035C
:1007300000201385C30E2686A285E934C1453715EE
:100740000140EF10E04931016FF03F96338586009C
:1007500005044204418085070CA13694C20718A005
:10076000C18359B7EFF2DF93BA8413170501211142
:1007700041873AC02ACA139705010245931306011F
:10078000418793D3034136842EC832C6BA85A686E4
:100790001E863AC21EC435364243A2439305F4FF77
:1007A0009A950245C2051E86A686C185193E124746
:1007B000024542044184A6862286BA857136B24734
:1007C000D24212471385F7FF16954205A686228668
:1007D000BA854185953E61016FF03F8DEFF25F8CE8
:1007E0001301C1FD2A846313C50263D5B600AE8729
:1007F000B685BE8685063386B6404206BA864186F1
:1008000022859936130141026FF03F8AB284639FBB
:10081000D5006354A6003284AA8413861400018E86
:100820004206BA8641862285693CE9BFB383D5403A
:1008300063D4D500B383B6406357940AB38284402F
:1008400063CD720AAE87A2853E84B387B440C207E7
:10085000C1833EC0131604011395060183170100DE
:10086000418241816357D40A3306C540420641861E
:1008700032C2054632C485876344D400FD5636C46F
:10088000E3C2B4F813130401939605013ED01ECEC3
:1008900016CC3ACA13530301C1823A8663DD72064D
:1008A000B6851A8536C81AC6D53B3243C24652476A
:1008B000E242F24382571246918F1396070141821A
:1008C00093170601C18763DB07008247B297224670
:1008D000C207C1873304C3004204418493851600D4
:1008E000C205C18571BFB302944063C87200B68768
:1008F000A686BE84AE87A2853E8463D8B600AE8746
:10090000B685A2862684BE8489B7A687B684BE86AD
:100910002DBF098EA1BF9A8536851AC836C6BD3B44
:100920008257F243E24252474243B24669B7EFF27E
:100930002FF71301C1FB2AC4AE841145854532C28D
:1009400002CC02CE02D002DA02DC02DE82C002C693
:1009500002C8231A010002D202D402D623180102CF
:10096000EF10803C85454145EF10003C854513055F
:100970000002EF10603B0565854513050580EF100B
:10098000A03A09470D44F8842C0841473715014027
:100990003AD022CEEF10601C894537150140EF1088
:1009A00020241147930680022C0837150140F88453
:1009B0003AC036D022CEEF10401A9546F484B716CE
:1009C000014061432C08138506401AD022CEEF1057
:1009D000C018B71601409945614313850680EC8421
:1009E0002C081AD022CE37340140EF10001713051F
:1009F00004C0EF10C040A2476C00130504C0FD17EF
:100A0000FD14FC8064862319010023170100230ACA
:100A10000100EF108042C167938707070247124623
:100A20003EDAB707080089073EDE4C18930700102E
:100A3000130504C0231CE102231DC102BEC0EF1038
:100A4000A0444C18130504C0EF10A04AB707C80013
:100A50003ED4B71700203ED64C109167130504C052
:100A60002318F10202D2EF102052130504C085456D
:100A7000EF100055130504C08145EF1020591305F0
:100A800004C08145EF106059130504C08545EF107F
:100A900040568545130504C0EF1000511301410471
:100AA0006FF0AFE0EFF2CFDF130141FC2A842EC2DA
:100AB000B28481451306C002080836C0EFF0EFE8A3
:100AC0008545054502C402C6EF1020242285EF00AB
:100AD0009076924782460C083EC8C1473ECC9307A9
:100AE00000083ED2930700103ED4930700403ED644
:100AF00022858D6736CE3EDA26CA02D002D802DCC5
:100B0000EF00907C85452285EF00907F9307A01130
:100B10007C8489475C85280085473EC6EF10200D00
:100B2000370502400546894513058505EF00907E8F
:100B30001301C1036FF06FD771113705020022C096
:100B4000EF00507F29C1894537150140EF10A008FB
:100B50008547370400208945631BF502371501409E
:100B6000EF104008B73501409306E0031306040375
:100B7000938585C33705024013058505253737055D
:100B80000200EF00D07B02441101730020303715C2
:100B90000140EF10E004B73501409306E00313066F
:100BA0000403938545C3F9B7EFF28FCF3111AA84BF
:100BB0002E8405458545EF10001937050040EF10DC
:100BC00000247D142C00FD143705004064866084E9
:100BD0002315010023170100EF1020260546854547
:100BE00037050040EF10203F930760527C80954707
:100BF0005C810A8585473EC2EF00707F51016FF02E
:100C0000CFCA711122C0373401408545130504C095
:100C1000EF100042130504C08545EF10E042024486
:100C2000110173002030711185453705004022C045
:100C3000EF1000408547631FF5002A848145370582
:100C40000040EF106036854537050040238E8192C5
:100C5000EF10803F0244110173002030EFF24FC4C7
:100C60000146C1451305900CD93137340140370690
:100C70000020370502409306E003930544C31306A2
:100C8000060313058505393D0546130504C0930584
:100C90000010EF1060358545130504C0EF10C0301B
:100CA0006FF0AFC0B707002003A5C702A1461387A6
:100CB000C7021356B5009357F501B18FA98F13568C
:100CC0001500B18F858B06055D8D9387F6FF939692
:100CD0000701C182F9FE08C31375F50F93172500AC
:100CE0003E958280EFF2CFBB511101479306000F72
:100CF0001306001481450145EFF07F9D1305803EEA
:100D0000EF10E0479567938707E223A8F192B704B5
:100D10000020138401931C401387F7FF18C081E75C
:100D200031016FF08FB8BD3F2AC4AD3F2AC09D3F4F
:100D3000CD45EFF0EFBC42054181B7070020060525
:100D4000938747008246AA97922336859305000F22
:100D500032C2EFF0EFBA224793170501C183930522
:100D600000143A853EC0EFF0AFB982471246420503
:100D7000BE854181EFF09F9279BFEFF26FB20147DC
:100D800071119306000F1306001481450145EFF021
:100D90001F941305803EEF10803E294723A8E1925F
:100DA000370300209387019398439306F7FF94C37A
:100DB00001E711016FF06FAF0144930443009316F4
:100DC0000401C18636C0F93DCD45EFF06FB3420551
:100DD00041810605269582461A2113060014B68520
:100DE00001450904EFF09F9F420441801307000F63
:100DF0009387019337030020E313E4FC75B7EFF208
:100E00002FAA014771119306000F130600148145A4
:100E10000145EFF0DF8B1305803EEF1040360547AC
:100E200023A8E19237030020938701939843930608
:100E3000F7FF94C301E711016FF02FA7014493045A
:100E4000430013160401418632C0A93DCD45EFF0A1
:100E50002FAB420541810605269502461A219306CD
:100E6000000F814532850D04EFF05F974204418009
:100E7000130710149387019337030020E313E4FC56
:100E800075B7EFF2EFA1211101479306000F13068A
:100E9000001481450145EFF09F831305803EEF105C
:100EA000002ED14723A8F192B704002013840193A8
:100EB0001C401387F7FF18C081E761016FF0EF9EB8
:100EC000D5332ACAC5332AC8F13B2AC2E13B2AC01E
:100ED000D13BCD45EFF0CFA242054181B7070020BD
:100EE000060593874700AA9782469A239305000F29
:100EF00036853AC6EFF0CFA0124693160501C1869B
:100F000093050014328536C4EFF08F9FC24213164A
:100F10000501418616859305000F32C2EFF04F9E02
:100F2000524393170501C187930500141A853EC0EB
:100F3000EFF00F9D82473247A24612464205BE851A
:100F40004185EFF0BF89ADB7EFF28F950147611191
:100F50009306000F1306001481450145EFF02FF7AB
:100F60001305803EEF10A021294723A8E192B70383
:100F700000209387019398439306F7FF94C301E7FA
:100F800021016FF08F920143938443009312030178
:100F900093D202011AC23304504016C02133CD450A
:100FA000EFF00F9642050604418142040605824295
:100FB000418026951A219306040F13060414C206D5
:100FC0004206C182418296851685EFF0AFF9124341
:100FD00013070005050393870193B7030020E31768
:100FE000E3FA51BFEFF2CF8B511101479306000F87
:100FF0001306001481450145EFF06FED1305803EA7
:10100000EF10E01785679387873823A8F192B7041C
:101010000020138401931C401387F7FF18C081E759
:1010200031016FF08F88BD392AC4AD392AC09D398E
:10103000CD45EFF0EF8C42054181B7070020060552
:10104000938747000246AA979A2332859305000F9B
:101050003AC2EFF0EF8AA24693170501C1839305C8
:10106000001436853EC0EFF0AF8982471247420533
:10107000D1465146BE854181EFF0CFEE69BFEFF218
:101080002F82511101479306000F1306001481456A
:101090000145EFF0CFE31305803EEF10400E9307BC
:1010A000803E23A8F192B7040020138401931C40D2
:1010B0001387F7FF18C081E731016FE01FFFEFF0E2
:1010C0007FBE2AC4EFF01FBE2AC0EFF0BFBDCD45E2
:1010D000EFF00F8342054181B70700200605938793
:1010E00047000246AA979A2332859305000F3AC219
:1010F000EFF00F81A24693170501C18393050014F9
:1011000036853EC0EFE0DFFF824712474205D146F9
:101110005146BE854181EFF08FDB51BFEFE25FF8B2
:10112000511101479306000F130600148145014534
:10113000EFF0EFD91305803EEF1060049307803E77
:1011400023A8F19289438942814701441383019383
:10115000032703009306F7FF2320D30001E73101A3
:101160006FE0BFF41EC416C23EC0EFF0BFB3B707B6
:101170000020CD4593844700EFE09FF84205418170
:101180000605824726951A21BE85C146130600052D
:101190002285EFF0CFD3EFF0FFB0CD45EFE05FF663
:1011A000420541810605AA948A20EFF04FBD924284
:1011B0001307F00E16941374F40F8247A24313839F
:1011C000019363768700B302504093F2F20F9E972B
:1011D00093F7F70F1307B00DE37CF7F6B3037040F6
:1011E00093F3F30FB5B7EFE2BFEBEFF0BFAFEFF064
:1011F000DFB8EFF0DFC07131813BED334935393F66
:101200006FE0BFEAEFE2DFE91301C1FD614681450E
:10121000680002C002C202C4EFE03FF38545130537
:101220000002EF007030854513050020EF00D02F3D
:10123000316537240140EF00F02113050440EF0031
:10124000806537150140C1478A85130505407C80BC
:1012500002C4EF009010854737070E006C0013059D
:1012600004403ECA3ACC2300F10202C602C802CEB4
:10127000EF00C064B705000213050440EF00607A78
:10128000854513050440EF0040698545130504407A
:10129000EF00A06713050440EF0040699304044089
:1012A0002685EF0040696DFD130504403724014099
:1012B000EF00E068130404402285EF00E0686DFD54
:1012C000130141026FE07FDEEFE29FDD1301C1FCFD
:1012D0002A842EC2B28481451306C002280036C07B
:1012E000EFE0BFE685450545EF0030222285EF009F
:1012F0008074924782462C003EC4930700083ECE7D
:10130000930700103ED0930700403ED222858D67A0
:1013100026C636CA3ED602C802CC02D402D8EF0096
:10132000A07A130141036FE05FD8EFE27FD7372443
:101330000140B7040240A946138681909305C44436
:10134000138584005137138584008545EF00407B69
:101350008D460546130504409D45392585451305F1
:101360000440FD236FE07FD4EFE29FD3138681908A
:101370001307460193878190014596238907369587
:1013800042054181E31BF7FEA945EFE0BFD43704D6
:101390000240B7250140A9461386819093140501A8
:1013A0009385C544130584000537130584008545DE
:1013B000EF000075C180856523A09192938525CBB0
:1013C0002685EFE03FCF9305F03FEFE03FD0138459
:1013D00041939305800508C00145EFF0AF991305CF
:1013E000007EEFF0CF9937350000130585E3EFF06D
:1013F0000FA91040B7350000938545E4138541924D
:10140000EF10E0419305800513056003EFF08F9620
:1014100041650115EFF0AF9613854192EFF02FA6CD
:101420009305800513054005EFF0CF941305007E6A
:10143000EFF0EF9437350000130585E4EFF02FA4AB
:101440006FE0BFC6EFE2DFC5930520060145EFF070
:101450006F921305007EEFF08F9237350000130571
:1014600005F0EFF0CFA1B7070040D233B735000049
:1014700042064182938545E41385419223ACC19293
:10148000EF10E0399305200613056003EFF08F8E0F
:101490001305F07FEFF0AF8E13854192EFF02F9E92
:1014A0009305200613054005EFF0CF8C1305007E51
:1014B000EFF0EF8C373500001305C5F0EFF02F9CEF
:1014C0006FE0BFBEEFE2DFBD01479306000F1306DA
:1014D000001481450145EFF08F9F0145EFF0CF8A61
:1014E0001305007EEFF0AF8985450145EFF08F8849
:1014F000373500001305C5E4EFF06F9841657D15A1
:10150000EFF0EF87C1450145EFF0CF86373500009A
:101510001305C5E6EFF0AF96E1450145EFF08F8585
:10152000373500001305C5E7EFF06F95930500020E
:101530000145EFF02F84373500001305C5E8EFF0C3
:101540000F94930580020145EFF0CF8237350000FC
:10155000130505EAEFF0AF92930500030145EFF0A4
:101560006F8137350000130505EBEFF04F919305C0
:1015700080030145EFF00F8037350000130545EC7F
:10158000EFF0EF8F930500040145EFE0BFFE373524
:101590000000130585EDEFF08F8E93058004014563
:1015A000EFE05FFD373500001305C5EEEFF02F8D3E
:1015B0006FE0BFAFEFE2DFAE05453D25752AEF00D6
:1015C000D0385123716513050520EF00F03EEFF090
:1015D000EFE8EFE0DFDF13054006EF00503A014788
:1015E0009306000F1306001481450145EFF02F8E7E
:1015F00041657D15EFE0BFF80145EFE0FFF8D93513
:10160000EFF05FC0EFF07FD2B1650565938505B857
:1016100013058538EFF04FD9854537050040EF00B9
:10162000B0189384C193238E0192EFF0FFD3EFF0B3
:101630007FE16545EF00B0349C20E5DBEFF0BFBAF9
:101640005135D9BFEFE2DFA5371402401C40370700
:10165000FFF8611193E717001CC05C404145F98F0A
:101660005CC01C403707F7FE7D17F98F1CC01C407B
:101670003707FCFF7D17F98F1CC05C4041777D1751
:10168000F98F5CC0B7079F001CC4652B1C4C370644
:10169000020093E707021CCCB717014003A70740DD
:1016A000938607401377F7F023A0E74003A707408E
:1016B0001367070823A0E74089479CCA02C002C2FB
:1016C0001C4C37070140A16693E717001CCC5C4314
:1016D000D58F5CC31C404167B7160240D98F1CC030
:1016E00009679C42F18F3EC2824785073EC0924700
:1016F00081E78247E397E7FEB71702409C431397C1
:10170000E7006359070685473EC2124785476310C5
:10171000F706B72702409843C176FD16719B98C320
:1017200098431367170098C3B7170240D843D8C32C
:10173000D843758FD8C3D843C166558FD8C3984353
:10174000B7060001558F98C3984393166700E3DDF1
:1017500006FED843B7160240719BD8C3D84313671F
:101760002700D8C32147DC42B18BE39EE7FE21016D
:101770006FE0BF9302C251BFEFE29F923717024062
:101780005C43370400209146B18B1304C40B63857E
:10179000D700A1466382D704B7376E0193870760ED
:1017A0001CC0B7160240DC420840918313F7F700D3
:1017B000B70700209387C70ABA978C23DC4293F5BA
:1017C000F50F93F707083357B50081E7EFE09F90D7
:1017D0002A8718C06FE07F8D5C43B777DC02938760
:1017E00007C07DBF01A097F1FF1F938121101381D6
:1017F00081F11305000A97F5FF1F9385A58017F661
:10180000FF1F1306268063FAC5008322050023A06C
:10181000550011059105E3EAC5FE171500001305F3
:10182000E56F97E5FF1F9385E57D17F6FF1F13060C
:10183000E68B63FAC5008322050023A0550011053D
:101840009105E3EAC5FE17F5FF1F1305258A938569
:1018500081946377B500232005001105E36DB5FE83
:10186000B722000093820288739002308D427390F9
:10187000428097E2FFFF9382E27893E23200739016
:101880005230EFF03FDC970200009382E2D2739077
:10189000123473002030B727014093870740631E3E
:1018A000F500EFE2EFFF854513050020652981452E
:1018B0001305002045296FE04FFF82805C41370708
:1018C000F1FF1307F7EF7D8FDC419441A207D58F1D
:1018D000D98F5CC11C4537F7F1FF1307D77FD4457B
:1018E0007D8F9C49D58F94458606D58FD98F1CC591
:1018F0005C55370710FF7D177D8FDC29FD1793F7A7
:10190000F70FD207D98F5CD582801C4589C593E734
:1019100017001CC58280F99BEDBF1C4589C593E764
:1019200007101CC5828093F7F7EFE5BF1C4593E7CE
:1019300087001CC5828008450D81058982801C4571
:1019400093E747001CC5828008450981058982808C
:101950001C4591C537075000D98F1CC582803707B9
:10196000B0FF7D17F98FD5BFA54763F8B70413877C
:1019700065FF931717008322C500BA971D433313E1
:10198000F3001343F3FF33735300B397F600B3E749
:1019900067005CC5994763E3C7047D16931726006B
:1019A0003E965859FD47B397C70093C7F7FFF98F85
:1019B000B395C500DD8D4CD9828093971500032324
:1019C0000501AE971D473317F7001347F7FF33772D
:1019D0006700B397F6005D8F18C96DBFB14763E22A
:1019E000C7026516931726003E961859FD47B39710
:1019F000C70093C7F7FFF98FB395C500DD8D0CD9EC
:101A000082804D161317260054553A96FD47B3971A
:101A1000C70093C7F7FFF58FB395C500DD8D4CD593
:101A200082805C41370700FA7D17F98F5CC15C4109
:101A3000DD8D4CC182801C4141677917F98F1CC133
:101A4000232005002322050023240500B7070240B8
:101A500023260500138787006317E500D843136723
:101A6000F700D8C382801387C7016316E500D84307
:101A70001367070FFDB7138707036318E500D84303
:101A80008566938606F0558FE9BF13874704631573
:101A9000E500D843BD66C5BF138787056316E5001B
:101AA000D843B7060F00C5B71387C7066316E5000E
:101AB000D843B706F000C1BF13870708E314E5FA5F
:101AC000D843B706000FC1B71841E177BD0794515D
:101AD0007D8F9C45D58F9449D58FD449D58F944D12
:101AE000D58FD44DD58FD451D58F9455D58FD98FCF
:101AF0001CC1DC455CC19C411CC5DC415CC58280CD
:101B00001C4189C593E717001CC182804167791782
:101B1000F98FDDBF1C4101C6DD8D0CC1828093C5EC
:101B2000F5FFFD8DDDBFB70702409C437D8D33354A
:101B3000A0008280EFE2CFD6FD376FE00FD7B70766
:101B40000240C8C38280EFE2AFD585450545192C18
:101B500081450545012C6FE04FD5944593F706016B
:101B600093F2F60081C7DC41B3E2F20083D30500B3
:101B700093F7F30FA5C303230500611122C226C00A
:101B80008147130480029304800405473316F7004D
:101B900033F7C3006312E602939527003D473317DE
:101BA000B7001347F7FF33736700B395B20033E311
:101BB0006500639D860050C985072147E397E7FCD0
:101BC000124423206500824421018280E39696FE20
:101BD00010C9DDB7828048456D8D3335A000828005
:101BE0000CC982804CC9828023A0A194828083A6E4
:101BF0000194854718216390F6021C31639CD7023B
:101C00003C219A0793E707F8B7E600E093F7F70F50
:101C1000BA962380F6408546935757003397E600DF
:101C2000544189CE938707048A07B7E600E0B69748
:101C300098C38280EDF33C219A07F9B79387070692
:101C4000E5B7371702401C430E0593F777F05D8D1B
:101C500008C38280B7160240DC4241771307F77F42
:101C6000F98F5D8DC8C28280EFE28FC337170240C3
:101C70005C4391462A84B18B6385D700A14663807B
:101C8000D708B7376E01938707601CC0B7160240AC
:101C9000DC42918313F7F700B70700209387470DC5
:101CA000BA978C23DC42184093F5F50F93F7070899
:101CB0003355B70081E73A85EFE0CFC148C008C48B
:101CC00048C4B7170240DC438D46AD83FD8B13D764
:101CD00037008A07F18BD98F13F6370113F73700D6
:101CE00063F4C600138747FFB70700209387070CEC
:101CF000BA978C23EFE00FBE08C86FE00FBB5C43C0
:101D0000B777DC02938707C049B799C537170240F8
:101D10005C4B5D8D48CB8280B7170240D84B134592
:101D2000F5FF798DC8CB828099C5371702401C4FCB
:101D30005D8D08CF8280B7170240984F1345F5FF9D
:101D4000798D88CF828099C5371702405C4F5D8DB1
:101D500048CF8280B7170240D84F1345F5FF798DE1
:101D6000C8CF828099C5371702405C475D8D48C750
:101D70008280B7170240D8471345F5FF798DC8C751
:101D8000828099C5371702401C4B5D8D08CB82803D
:101D9000B7170240984B1345F5FF798D88CB8280A9
:101DA0001A218D6793870704B6217D8F9E21D58FD9
:101DB000D621D58FF621D58F9625D58FB625D58FEF
:101DC000D625D58FF625D58FD98F1EA19E291EA980
:101DD00082801E2189C593E707041EA18280C20765
:101DE000C18393F7F7FBC207C183C5BF5E2101C65C
:101DF000DD8D4EA1828093C5F5FFFD8DDDBFEFE245
:101E00002FAAB7370140938707C0631DF50005640B
:101E1000854513050480B93781451305048099373A
:101E20006FE0AFA8B7070040E31CF5FE8545054508
:101E3000893F81450545B137E5B71E213737014058
:101E4000130707C0C207C1836306E50037070040D8
:101E50006316E500BA2193F7F7F8D98FFA2193F7C3
:101E6000F7CFC207C183D98F1EA1DE215EB59E21A7
:101E70001EB5B7370140938707C06314F5009C2552
:101E80001EB985475EA982801E31922103D32500A9
:101E9000C207C183F99BC207C1831EB11E315621FF
:101EA0001A2DC207C183420741831377C7F8518FA8
:101EB0009225F59BC20633666600D18F3736014006
:101EC000130606C0C1826310C502B225DD9B03D391
:101ED000E500D18FD221ED9B93F6F6CFD18FD2259D
:101EE00033666600D18E56A11AADFA2158D91EB1BB
:101EF00082801E3165771307F7CFC207C183BD9B70
:101F0000C207C1831EB11E31562103D38500C2070B
:101F100013960601162DC18393F7F7FD758F962151
:101F20004182A206558FB62142074183B3E666007F
:101F30009206D58FB7360140C207938606C0C1838B
:101F4000631ED502B62593F7F7F703D3C5009206B3
:101F5000D58FD621C207C183920693F7F7FBD58FA1
:101F6000FD769386F63FF18EF225C207C183336674
:101F700066000A06D18E13960601418252A11AAD5F
:101F8000FA2118DD1EB18280BA219E21D98FDA2173
:101F9000D98FFA21D98F9A25D98FBA25D98FDA25E9
:101FA000D98F2312F50482801E2189C593E717007B
:101FB0001EA18280C207C183F99BC207C183CDBF26
:101FC0008357450491C52167D98F2312F504828078
:101FD000C607C583DDBF5E2501C6DD8D4EA58280A7
:101FE00093C5F5FFFD8DDDBFEFE28F8BED376FE021
:101FF000CF8B1E2189C593E707081EA18280C207E7
:10200000C18393F7F7F7C207C183C5BF1E2DC2076F
:10201000C183DD9BDD8D0EAD82801A2DFD77938708
:10202000F77FF98FA205CD8FC207C1831EAD8280D5
:102030001E294A25ED8F4205418189C76D8D3335B3
:10204000A00082800145828093C5F5FFC205C18151
:102050000EA98280EFE2CF841629F577FD17F58F60
:10206000F621DA252111D58F1EA95625FD779387F4
:10207000379FF58FD6212A842EC0D58F9625D58FF0
:10208000B625D58F5EA55E29C207C18393F7F7CF2A
:102090005D8F5AA94800EFF03FBDB74701409387D5
:1020A000078082456312F406C2475A24139517002D
:1020B0003E9542070E0541873E958C4163580704C3
:1020C0008605EFE02F81930540062AC0EFE08F8060
:1020D000824793144500930540063E85EFE04F820A
:1020E0005E24C207C18763D507020E05930540062B
:1020F00013052503EFD01FFE1D89C98CC204C180C2
:1021000006A461016FD07FFAB24745B78A0555BF73
:1021100012059305400613052503EFD0BFFB3D894B
:10212000E9BF91C55E250967D98F5EA582805A25D2
:10213000F977FD17F98FD5BF93F5F51F4EA1828072
:102140000A216D8D3335A0008280EFD27FF5B7076D
:10215000002003A5C70BB7157A0093850520EFD0A3
:102160007FF71375F50F2383A19493175500898F7B
:102170008A073E950E052392A1946FD01FF3EFD2EC
:102180003FF237F400E05C40AA85F99B5CC003D5C0
:102190004194EFD03FF208C8232404001C4093E789
:1021A00017001CC0B7F700E0D843058B75DF9843D4
:1021B000799B98C36FD07FEFEFD29FEE2A84116591
:1021C0001111854513050502EFF01FB693070002B4
:1021D0007C80371501408D473EC28A85E147130553
:1021E00005403EC4EFF07F9722C637440140B70751
:1021F00008006C00130504803ECA02C8231C0100BD
:10220000EFF05FE5854513050480EFF09FF1710164
:102210006FD0BFE9EFD2DFE87111AE840144635F94
:10222000C402B7470140138707803A85930500042D
:1022300032C0EFF0FFF0B747014013870780024636
:102240006DD5338784008305070013850780050457
:10225000C205C181EFF05FEE0246D1B732851101B0
:102260006FD0BFE4411106C62EC00DCD1841AA871C
:1022700005C358417D5511CB8546631BD700984750
:102280002300070023A207000545B24041018280D8
:102290009847824614A39847050798C7D8437D17E7
:1022A000D8C3DDB705468A85EFF0DFF6F1BF01112F
:1022B00022CC2EC206CE26CA2A848147930500026C
:1022C000634506029245BE95838505008DE563D87A
:1022D000C70263D4E702198E1305000293F52600A6
:1022E0002AC089C501E7930500032EC0858A814471
:1022F0009DEAB28415A08507F1B71D8EF1BF014696
:10230000E1BF824522853AC832C63EC4EFF09FF550
:10231000A24732464247FD14E34590FEB284635320
:1023200006008144058E63C7E702A687924633877D
:1023300097403697830507009DEDB284634690046D
:10234000635306000146F2406244D2443305F6006E
:10235000056182801D8FBA8793050003228532C8EC
:102360003EC63AC4EFF01FF0B24722474246FD177F
:10237000E5F7BA945DBF228532C63EC4EFF09FEE0A
:10238000A247324685075DB78245228532C43EC2E8
:10239000EFF05FEDFD14224692474DB7397106DE2E
:1023A00022DC26DA3EC232833A8691ED92469307CA
:1023B000000301476C08FC86EFF07FEFF250625497
:1023C000D25421618280AA843684AE8791CA29477B
:1023D00001446317E30063D50500B307B04005442B
:1023E0008646A309010213073103938666FC36C4AF
:1023F0009A853E8532CA3AC81AC63EC0EFD05FD031
:10240000A546824732434247524663D4A600A246BD
:102410003695130505039306F7FFA30FA7FE9A85CC
:102420003E8532CC3ACA1AC83EC636C0EFD09FCAE3
:10243000B24742435247624663FD670409CC29CE46
:102440009247898BB1CB9305D002268532C4EFF039
:102450007FE122467D169247918B85C706479307F9
:10246000100632C49305000326856311F704EFF0CC
:102470007FDF930580072685EFF0DFDE2246090423
:1024800079161647924682452685EFF05FE222953F
:1024900035B7AA870247A9BF82469307D0020144F5
:1024A000A38FF6FE9307E7FF3EC075B7EFF09FDB03
:1024B00093058005C9B701458280014582801301DB
:1024C00081FD22D026CE06D22AC4AE82328402C634
:1024D00081448385020091EDA24789C781453E85ED
:1024E000EFF05FD8925002542685F2441301810226
:1024F0008280930750026389F500224516C885043F
:10250000EFF05FD6C24205A0838712001387120046
:10251000639DB7002245930550023AC8EFF09FD45F
:1025200042478504BA8285026DB7DDD79306B002B3
:102530006389D70463C8F600930630026386D70424
:10254000814705A09306D002638AD7009306000353
:10255000E398D7FE13872200894721A01387220022
:102560008547830607001306B0026383C6046341F0
:10257000D60213063002638BC602BA820145A54615
:1025800081A0138722006DBF138722009147D1BF1E
:102590001306D0026389C60013060003E39FC6FC3E
:1025A00093E7270031A005078547C1BF93E74700A0
:1025B0000507E1B713162500329506053A95850201
:1025C00003860200130706FD9375F70FE3F4B6FECA
:1025D0001307E0029946631EE60085028146A54581
:1025E00003860200130606FD1377F60F63F5E50276
:1025F00036C6038702001306A006630DC70A6343AD
:10260000E6021306C0046307C70A13068006630CBC
:10261000C70881452DA813972600BA968606B2965C
:1026200085027DBF130640076306C7081306A0078F
:102630006302C7081306C0068145631AC7000386F4
:1026400012008D456314E6008502914585020386DC
:102650000200930300061307100663C4C3001307A8
:1026600010049303700663C4C306930350066356B5
:1026700076189303700463C1C30493055004635E2A
:10268000B61613073004E310E6EA1840930344003B
:1026900016CA230CE1001EC8A30C01000147BE8628
:1026A0002A862C0849A8038612008145E311E6FA20
:1026B000890271BF8502B1BF93063006E307D6FCDD
:1026C00063CFC606930680056303D602A9BD9306B1
:1026D00030076304D60463CBC6029306F006630595
:1026E000D60E9306000793E74700E31ED6E2914615
:1026F0006392D50C930384000C40504016CA3AC232
:102700003EC01EC8AA870147C14681A8930650074C
:10271000630BD6069306800745BF1840B736000006
:1027200093034400938506F111C3BA85324716CA54
:102730001EC8BE862A862245EFF07FB715A09146B7
:102740006395D502930384000C40504016CA3AC2E8
:102750003EC01EC8AA870547A9462245EFF0BFD54F
:10276000C243AA941E84D2427DBBB2460C4016C816
:1027700036C23AC011042A87854629462245EFF021
:10278000FFC1AA9441B39146639DD5009303840091
:102790000C40504016CA3AC23EC01EC8AA87014724
:1027A00065BFB2460C4016C836C23AC011042A872B
:1027B0008146E1B7B24616C80C40414636C23AC01F
:1027C00011042A8781465DBF9146639ED50093031D
:1027D00084000C40504016CA3AC23EC01EC8AA87A8
:1027E0000147A1469DBFB2460C4016C836C23AC04A
:1027F00011042A878146214651B70C4013068400F4
:1028000040403AC22A87224532C83EC02286B68757
:10281000A94616CAEFF07FCAAA944244A9B7130189
:1028200041FD32CE3ED42AC67008FD57480006CC82
:1028300036D03AD202C23EC432C0EFF05FC8E240A6
:102840001301C1028280B3C7A5008D8B3307C50079
:1028500081E78D4763E7C702AA87637EE50A942173
:1028600085078505A38FD7FEE3EBE7FE82809421E1
:1028700085078505A38FD7FEE3EBE7FE0244110130
:10288000828093763500AA8789CA942185078505B9
:10289000A38FD7FE93F63700C5BF9376C7FF138685
:1028A00006FE63F5C706711122C0C04903A30500E7
:1028B00083A38500C0CB804D23A0670003A3450000
:1028C00080CFC04D23A2670083A2C50003A30501EA
:1028D00093854502C0CF03A4C5FF23A4770023A698
:1028E000570023A867009387470223AE87FEE3EED5
:1028F000C7FAE3F3D7F890419107910523AEC7FEDD
:10290000CDBF90419107910523AEC7FEE3EBD7FE03
:10291000E3E7E7F48280828009160920211B13195E
:1029200017151E2B0405020E0B14081E221D181E5F
:102930001B1A242B0606020F00000000003E5B4F0E
:102940005B3E3E6B4F6B3E1C3E7C3E1C183C7E3C0F
:10295000181C577D571C1C5E7F5E1C00183C18001D
:10296000FFE7C3E7FF0018241800FFE7DBE7FF30AD
:10297000483A060E2629792926407F050507407F1B
:1029800005253F5A3CE73C5A7F3E1C1C08081C1C8E
:102990003E7F14227F22145F5F005F5F06097F0184
:1029A0007F006689956A606060606094A2FFA2946F
:1029B00008047E040810207E201008082A1C08083D
:1029C0001C2A08081E101010100C1E0C1E0C30388B
:1029D0003E3830060E3E0E06000000000000005F8C
:1029E00000000007000700147F147F14242A7F2AA8
:1029F000122313086462364956205000080703006A
:102A0000001C2241000041221C002A1C7F1C2A08B5
:102A1000083E080800807030000808080808000018
:102A200060600020100804023E5149453E00427F8C
:102A3000400072494949462141494D331814127FDB
:102A40001027454545393C4A49493141211109077B
:102A50003649494936464949291E000014000000FC
:102A600040340000000814224114141414140041CE
:102A700022140802015909063E415D594E7C12118B
:102A8000127C7F494949363E414141227F414141C3
:102A90003E7F494949417F090909013E414151733E
:102AA0007F0808087F00417F41002040413F017FAF
:102AB000081422417F404040407F021C027F7F0477
:102AC00008107F3E4141413E7F090909063E4151C0
:102AD000215E7F09192946264949493203017F01B0
:102AE000033F4040403F1F2040201F3F4038403FB1
:102AF000631408146303047804036159494D4300C7
:102B00007F4141410204081020004141417F0402FD
:102B10000102044040404040000307080020545494
:102B200078407F2844443838444444283844442872
:102B30007F385454541800087E090218A4A49C78C5
:102B40007F0804047800447D40002040403D007F21
:102B50001028440000417F40007C047804787C0801
:102B60000404783844444438FC18242418182424D5
:102B700018FC7C08040408485454542404043F44BA
:102B8000243C4040207C1C2040201C3C4030403CE9
:102B900044281028444C9090907C4464544C440049
:102BA00008364100000077000000413608000201AD
:102BB0000204023C2623263C1EA1A161123A404099
:102BC000207A385454555921555579412254547816
:102BD00042215554784020545579400C1E527212AF
:102BE0003955555559395454545939555454580038
:102BF00000457C410002457D420001457C407D123C
:102C000011127DF0282528F07C545545002054549D
:102C10007C547C0A097F4932494949323A44444448
:102C20003A324A4848303A4141217A3A4240207883
:102C3000009DA0A07D3D4242423D3D4040403D3C84
:102C400024FF2424487E4943662B2FFC2F2BFF09A9
:102C500029F620C0887E090320545479410000449D
:102C60007D413048484A32384040227A007A0A0A88
:102C7000727D0D19317D2629292F282629292926FB
:102C800030484D4020380808080808080808382F40
:102C900010C8ACBA2F102834FA00007B00000814CA
:102CA0002A142222142A14085500550055AA55AAA0
:102CB00055AAFF55FF55FF000000FF00101010FF40
:102CC00000141414FF001010FF00FF1010F010F09B
:102CD000141414FC001414F700FF0000FF00FF148C
:102CE00014F404FC141417101F10101F101F1414D8
:102CF000141F00101010F0000000001F1010101022
:102D00001F10101010F010000000FF101010101015
:102D100010101010FF10000000FF140000FF00FF53
:102D200000001F10170000FC04F4141417101714EF
:102D300014F404F40000FF00F71414141414141411
:102D4000F700F7141414171410101F101F14141484
:102D5000F4141010F010F000001F101F0000001FEE
:102D600014000000FC140000F010F01010FF10FF21
:102D7000141414FF141010101F00000000F010FFB6
:102D8000FFFFFFFFF0F0F0F0F0FFFFFF000000009A
:102D900000FFFF0F0F0F0F0F3844443844FC4A4A1E
:102DA0004A347E02020606027E027E0263554941D3
:102DB000633844443C04407E201E2006027E02020A
:102DC00099A5E7A5991C2A492A1C4C7201724C301E
:102DD0004A4D4D303048784830BC625A463D3E49F5
:102DE0004949007E0101017E2A2A2A2A2A44445F99
:102DF000444440514A444040444A51400000FF018D
:102E000003E080FF000008086B6B0836123624369A
:102E10000006090906000018180000001010003014
:102E200040FF0101001F01011E00191D1712003C87
:102E30003C3C3C0000000000414443312D434837F6
:102E40003A200000253464006D56000043483332B8
:102E500056303033205350574D202620494C4939A5
:102E60003334312044656D6F00000000312E205254
:102E7000616E646F6D20646F74000000322E204814
:102E80006F72697A6F6E206C696E6500332E205602
:102E90006572746963616C206C696E650000000086
:102EA000342E2052616E646F6D206C696E65000077
:102EB000352E2043656E7465722052656374616EB1
:102EC000676C6500362E2052616E646F6D2052650E
:102ED0006374616E676C6500372E2046696C6C20E8
:102EE00072656374616E676C65000000382E204D5A
:102EF0006F76652052656374616E676C65000000D3
:102F000054494D322D434E543A2000006D73000059
:082F1000286E756C6C290000AD
:102F1800FFFF000000000F00E003EF0300780F78C8
:102F2800E07B18C6EF7B1F00E007FF0700F81FF8DB
:102F3800E0FFFFFF20FDE5AF18FC000001000000E6
:102F480005000A000F00140019001E0022002700C7
:102F58002C003000340039003D0041004400480096
:102F68004B004F0053005500570059005B005D00AF
:102F78005F00600061006300630064006400640037
:102F880063006300610060005F005D005B00590042
:102F98005700550053004F004B00480044004100C3
:102FA8003D003900340030002C00270022001E00AC
:102FB800190014000F000A000500000001020304B4
:102FC800050607080102030405060708006CDC0271
:102FD8000204060804080C100810182010203040BD
:102FE800204060800102030405060708010203046B
:082FF8000506070800000000B7
:00000001FF
